:020000040800F2
:10000000180B00209D010008BF3C0008C9370008FC
:10001000BD3C0008CD1200080943000800000000A4
:10002000000000000000000000000000553E000835
:100030005914000800000000ED3D0008573E00087C
:10004000B7010008B7010008B7010008B7010008B0
:10005000B7010008B7010008B7010008B7010008A0
:10006000B7010008B7010008B7010008B701000890
:10007000B7010008B7010008B7010008B701000880
:10008000B7010008B70100086D09000891130008C6
:1000900065130008B7010008B7010008B7010008A0
:1000A000B7010008B7010008B7010008B701000850
:1000B000B7010008B7010008B7010008B701000840
:1000C000B7010008B7010008B7010008B701000830
:1000D000B7010008B7010008B7010008B701000820
:1000E000B7010008B7010008B7010008B701000810
:1000F000B7010008B7010008B7010008B701000800
:10010000B7010008B7010008B7010008B7010008EF
:10011000B7010008B7010008B7010008B7010008DF
:100120009D130008B7010008A9130008B7010008D3
:10013000B7010008B7010008B7010008B7010008BF
:10014000B7010008B7010008B7010008B7010008AF
:10015000B7010008B7010008B7010008B70100089F
:10016000B7010008B7010008B7010008B70100088F
:10017000B7010008B7010008B7010008000000003F
:10018000B7010008B7010008DFF80CD000F022FB2F
:1001900000480047D1430008180B0020064880475C
:1001A00006480047FEE7FEE7FEE7FEE7FEE7FEE75C
:1001B000FEE7FEE7FEE7FEE7F13E000889010008E2
:1001C0002DE9F05F0546002092469B46884606468C
:1001D000814640241BE0284641464746224600F01F
:1001E00042FA53465A46C01A914110D31146184656
:1001F000224600F029FA2D1A67EB01084F462246E5
:100200000120002100F020FA17EB00094E41201ECA
:10021000A4F10104DFDC484631462A464346BDE8E6
:10022000F09FD2B201E000F8012B491EFBD27047CB
:100230000022F6E710B513460A4604461946FFF7B2
:10024000F0FF204610BD2DE9FE4F804681EA0300F5
:10025000C00F0C46009021F0004123F00045B8EBA0
:100260000200A94105D24046214690461C460B4655
:10027000024623F00040104347D0270DC7F30A0081
:10028000C3F30A510290401A019040286BDAC3F37D
:10029000130040F4801B0098924620B10023D2EB5B
:1002A000030A63EB0B0B01985946C0F1400250461C
:1002B00000F0CAF906460D4650465946019A00F02C
:1002C000E2F910EB08006141002487EA115284EA48
:1002D000E7731A4340D0009A62B3019A012A4FEAA9
:1002E000075215DC001B61EB02014FF0004202EAED
:1002F0000752CDE90042001C41F5801132462B46E1
:1003000000F019FA03B0BDE8F08F40462146F9E746
:10031000001B61EB0201001C41F5801300185B41DA
:100320002018A2F5001747EB030140EAD570B61973
:100330006D4111E06D084FEA360645EAC0754FEA97
:100340000752001B61EB0201001C41F580114908B6
:100350004FEA30000019514132462B4603B0BDE848
:10036000F04F00F0D9B90098012240000023D0EBF3
:10037000020263EBE073009821464FEAE074B8EBA9
:10038000000061EB0401E9E783F000435BE781F0E3
:10039000004158E72DE9FE4F81EA030404F00044D0
:1003A00021F0004100944FF0000B23F0004350EA8D
:1003B00001045ED052EA03045BD0C3F30A54C1F3D4
:1003C0000A552C44A4F2F3340194A0FB0254C1F367
:1003D000130141F48011C3F3130343F4801301FBB1
:1003E000024400FB034E840A970A44EA815447EA18
:1003F0008357A4FB076802958D0A05FB07854FEA22
:10040000932C04FB0C542705029D4FEA065847EA3B
:100410001637B5EB08056EEB070C870E920E47EA10
:10042000811742EA8312A7FB0201B6EB0B0164EBD2
:1004300000042B0D43EA0C335E1844EB1C50DA46E3
:100440005146E7FB0201C5F313044FEA0B3343EABD
:1004500014534FEA0432019C43EA0603A4F10C044E
:100460000294009CCDE900B400F065F903B0BDE84A
:10047000F08F00200146F9E72DE9F04D81EA0304F1
:1004800004F0004B21F0004514464FF0000A23F021
:10049000004150EA050220D054EA01021DD0C5F304
:1004A0000A570246C5F31303C1F31300C1F30A56FA
:1004B00040F4801543F48013A7EB0608101BD646C2
:1004C00008F2FD3873EB050002D308F1010801E0E2
:1004D00092185B41B8F1000F03DA00200146BDE835
:1004E000F08D00204FF48011064684460EE0171B65
:1004F00073EB050705D3121B63EB050306434CEAB8
:10050000010C49084FEA300092185B4150EA01079C
:10051000EDD152EA030012D082EA040083EA050119
:10052000084305D0101BAB4106D20122002306E090
:1005300000224FF0004302E06FF0010253101AEB6B
:1005400006004CEB085110EB0A0041EB0B01BDE833
:10055000F04D00F0E1B8C1F30A5210B5C1F3130138
:1005600040F2FF3341F480119A4201DA002010BDBD
:1005700040F233439A42A2F2334203DC524200F08B
:1005800072F810BD904010BD00F0004230F0004005
:100590000AD0C10D01F56071C0F3160042EA0151A5
:1005A000C208400711437047002001467047000011
:1005B00030B5041E71F1000404DB4FF000444042EA
:1005C00064EB0101141E73F1000405DB1C464FF0BF
:1005D0000043524263EB04038B4208BF824230BDAA
:1005E00030B5041E71F1000404DB4FF000444042BA
:1005F00064EB0101141E73F1000405DB1C464FF08F
:100600000043524263EB0403994208BF904230BD5D
:1006100001F0004330B421F0004150EA010206D05D
:100620000A0DA2F56072C1F31301002A02DC30BC8E
:1006300000207047440F44EAC104C100E01830BCF8
:1006400000EBC25000F031B8202A04DB203A00FA57
:1006500002F1002070479140C2F1200320FA03F319
:10066000194390407047202A04DB203A21FA02F017
:100670000021704721FA02F3D040C2F120029140DC
:10068000084319467047202A06DBCB17203A41FA67
:1006900002F043EAE07306E041FA02F3D040C2F10F
:1006A000200291400843194670470029A8BF7047AF
:1006B000401C490008BF20F00100704710B4B0FA98
:1006C00080FC00FA0CF050EA010404BF10BC704733
:1006D00049B1CCF1200421FA04F411FA0CF118BF4D
:1006E000012121430843A3EB0C01CB1D4FEA00611C
:1006F0004FEA102042BF002010BC704700EBC350EF
:1007000010440029A4BF10BC7047401C490008BF1A
:1007100020F0010010BC704710B5141E73F10004E6
:1007200008DA401C41F1000192185B411A4301D1E3
:1007300020F0010010BD2DE9F04D92469B4611B10D
:10074000B1FA81F202E0B0FA80F220329046FFF76F
:100750007BFF04460F4640EA0A0041EA0B0153467C
:100760005A46084313D0114653EA010019D0C8F184
:1007700040025046FFF777FF05460E465046594661
:100780004246FFF761FF084305D0012004E0204600
:100790003946BDE8F08D0020054346EAE0762C435B
:1007A00037430A986305E40AA0EB08000022FD0A1B
:1007B00044EA47540A3002D500200146E9E7010522
:1007C00010196941DDE9084500196941BDE8F04D9E
:1007D000A2E70000064C074D06E0E06840F0010388
:1007E00094E8070098471034AC42F6D3FFF7D0FCEA
:1007F000744500089445000810B5374C2DED028B68
:10080000E06BFFF7C1FE41EC180BA06BFFF7BCFEDD
:1008100094ED041B53EC112BFFF7BCFD53EC182B8C
:10082000FFF711FDC4E90201483CE06BFFF7ACFEA5
:1008300041EC180BA06BFFF7A7FE94ED041B53ECE3
:10084000112BFFF7A7FD53EC182BFFF7FCFCC4E9B5
:1008500002019034E06BFFF797FE41EC180BA06BA0
:10086000FFF792FE94ED041B53EC112BFFF792FD62
:1008700053EC182BFFF7E7FCC4E90201A4F59074D0
:10088000E06BFFF781FE41EC180BA06BFFF77CFEDD
:1008900094ED041B53EC112BFFF77CFD53EC182B4C
:1008A000FFF7D1FCC4E902014834E06BFFF76CFEAE
:1008B00041EC180BA06BFFF767FE94ED041B53ECA3
:1008C000112BFFF767FD53EC182BFFF7BCFCC4E9B5
:1008D0000201BDEC028B10BD2004002010B50146C2
:1008E000806B026C12F0500F05D0026CD20626D538
:1008F00000F078FF10BD016C41F4007101640168E3
:100900008A6812F0405F17D1027EAAB9CA6A12F44F
:10091000700F02D08A6852050ED44A6822F0200275
:100920004A60016C21F480710164016CC90403D434
:10093000016C41F00101016400F052FF10BD806BB9
:10094000C26CBDE810400846104710B5806B4021CE
:100950000164416C41F00401416400F043FF10BDAB
:1009600010B5806B00F03DFF10BD000010B50448CD
:1009700000F039FFBDE81040024800F034BF00002D
:100980003800002080000020464910B54A6822F453
:1009900040324A604A6843681A434A6001684A68BC
:1009A00022F480724A6001684A68036942EA0322BD
:1009B0004A6001684A6822F040724A6001684A68E9
:1009C00083681A434A6001688A6822F400628A6078
:1009D00001688A68C3681A438A60816A6FF070622E
:1009E000D14201688A6822F070628A6001688A6870
:1009F0000CD0836A1A438A6001688A6822F04052E8
:100A00008A6001688A68C36A1A4301E022F0405292
:100A10008A6001688A6822F002028A6001688A6836
:100A2000037E42EA43028A6090F8201000290168A0
:100A30004A680FD042F400624A6001684A6822F4B2
:100A400060424A6001684A68174C436A04EB4333CA
:100A50001A4301E022F400624A600168CA6A22F483
:100A60007002CA620168CA6A838B104C04EB03539C
:100A70001A43CA6201688A6822F400728A600168B7
:100A80008A6890F8303042EA43228A6001688A68B6
:100A900022F480628A6001688A68406942EA8020A4
:100AA000886010BD0023014000E0FFFF0000F0FF60
:100AB00070B53B482DED028B02F03EFC002138481A
:100AC00002F08EFD0421364802F08AFD08213448E8
:100AD00002F086FD0C21324802F082FD30480021F0
:100AE0000268516303684FF47A729A630368DA63A9
:100AF000006801649FED2B8ADFED2B1A9FED2B1A06
:100B0000B0EE482AF0EE000AB1EE040A01212848AE
:100B100003F056F92648B0EE482ADFED261A9FED7D
:100B2000261ADFED260A9FED260A01213C3003F04C
:100B300047F91F48B0EE482ADFED221A9FED221A2E
:100B4000F2EE0E0A9FED210A0121783803F038F900
:100B50001748B0EE482ADFED1E1A9FED1E1AF2EE7E
:100B60000E0A9FED1D0A01213C3803F029F91B4DA7
:100B70009FED1B8ADFED1B8A002400BF04EB4400BD
:100B800005EBC000F0EE480AB0EE680A03F0EEFB99
:100B9000641CE4B2052CF1D3BDEC028B70BD0000E7
:100BA00004020020000000000AD7233C3333333F07
:100BB000A0050020295C0F3D3333B33E0000A04266
:100BC000000096438FC2F53CCDCCCC3E00001643CE
:100BD0008FC2753D9A99993F0000C842A006002037
:100BE00000007A4400401C4670B5554C2DED0A8B30
:100BF000207C6081607C400000EE100A5148B8EE15
:100C0000400A84ED050A90ED020B51EC100BFFF742
:100C1000FFFC4D4D28604D4890ED020B51EC100B40
:100C2000FFF7F6FCA8614A4890ED020B51EC100B5F
:100C3000FFF7EEFC2863474890ED020B51EC100BD8
:100C4000FFF7E6FCA864444890ED020B51EC100B52
:100C5000FFF7DEFC0026286606EB460005EBC00029
:100C600003F072FB761CF6B2052EF5D36868FFF729
:100C70008BFCC4E94201E869FFF786FC41EC1B0BE1
:100C800084ED44BB686BFFF77FFC41EC180B84EDEF
:100C9000468BE86CFFF778FC41EC1C0B84ED48CBED
:100CA000686EFFF771FC41EC190B51EC180B84EDE9
:100CB0004A9BFFF7ADFC294E0AEE100A51EC1C0BC3
:100CC00086ED01AAFFF7A4FC054600EE105A51EC90
:100CD000190B86ED000A2AEE000A86ED020AFFF7DC
:100CE00097FC00EE900A06F10C0100EE105A81EC20
:100CF000020A53EC192B20EE800A81ED020A51EC16
:100D0000180BFFF741FBFFF783FC00EE100A06F11A
:100D1000180100EE905A81ED010AC1ED000A20EEA3
:100D2000200A81ED020A51EC1B0BFFF771FC06F162
:100D30002401086001202070BDEC0A8B70BD00000A
:100D40001005002048030020A0060020900300208A
:100D5000D803002020040020680400207006002032
:100D600010B50D4C94ED560A00F01AF8237A0B4991
:100D700000204FF4FA723BB1012B0B6898630968AD
:100D800007D00A64C86310BD0B689A6309680864D9
:100D9000F8E70864CA6310BD100500204402002073
:100DA0002DE9F0472DED068B82B0B0EE408ADFEDE5
:100DB0009B8A9FED9B9AB5EEC08A0027F1EE10FA50
:100DC000984E994D994C4FF47A7802D2287A01289E
:100DD00021D018EE100A4FF07E59F7EE009A4845E0
:100DE0003BDD95ED481B95ED440B53EC112B51EC7D
:100DF000100BFFF7F5FB30D2022068709FED8C0AD4
:100E000084ED000A94ED000AC0EE080A39EEE00A0B
:100E100084ED010A38E018EE100AFFF7B5FB9FEDEC
:100E200085AB53EC1A2BFFF7B5FA9FED841B53ECFF
:100E3000112BFFF7AFFAFFF7EBFB0090C4ED018A2F
:100E400018EE100AFFF7A0FB53EC1A2BFFF7A2FADB
:100E5000FFF7DEFB00EE100A12E018EE100A48451C
:100E600011DAB5EEC08AF1EE10FA0CDD01206870DF
:100E7000C4ED018A94ED010A39EEC00A20EE080A99
:100E800084ED000A00E06F7095ED440B9FED6D1B43
:100E900051EC100B53EC112BFFF7A2FB01D2287A77
:100EA00058B1287A9FED69AB9FED6A8B4FF03C09F2
:100EB00040F2B63A012806D05AE06F7085ED129ADA
:100EC00085ED219A5CE095ED440B53EC182B51EC29
:100ED000100BFFF785FB3CD295ED440B53EC1A2B1E
:100EE00051EC100BFFF756FA95ED481B53EC112B04
:100EF000FFF7C2FAFFF72FFBA060A068DDED000A44
:100F0000400000EE100AB8EE400A30EE200ABCEEB7
:100F1000C00A10EE100AA060A0684008A060A16896
:100F20005046814265D8A0683C2801D2484660E01E
:100F3000A06831684863A068316888633168C1F887
:100F40003C903168C1F8409002B0BDEC068BBDE822
:100F5000F087287A01280BD195ED440B53EC182B20
:100F600051EC100BFFF724FB02D285ED129A07E03B
:100F7000687828B19FED390A01280CD002283AD0B0
:100F8000306847633168C1F838803168C1F83C8007
:100F900030680764D8E7A06894ED001A00EE900A64
:100FA000F8EE600A41EE000ABCEEE00A10EE100A0C
:100FB000A060A0684008A06095ED440B53EC1A2B8C
:100FC00051EC100BFFF7E6F995ED481B53EC112B94
:100FD000FFF752FAFFF7BFFAE060287A28B9A06855
:100FE000E168884201D2E068A060A1685046814271
:100FF0009ED9A0609CE7A06894ED011A00EE900ACB
:10100000F8EE600A41EE000ABCEEE00A10EE100AAB
:10101000A060A0684008A060B2E700008FC2753DE4
:10102000000000000402002010050020280000201D
:10103000CDCC4C3DB81E85EB51B8EE3F0000000012
:1010400000408F400000000000003740000000001A
:1010500000608D40000000000000284000007A443D
:1010600070B5514C01252DED048B04F5BC73214660
:1010700001F11800227A9FED4D8B93ED010AD1F812
:101080004C1112B1012A3FD05FE0B1F1814F02DC77
:10109000D4ED530A03E0F1EE000AC4ED530A02F066
:1010A0000FFE84ED540A94ED440B51EC100BFFF746
:1010B000AFFA00EE100A3C48F3EE070A543002F093
:1010C000FFFD84ED550AD4ED540AB4EEE00AF1EECA
:1010D00010FA10D810EE100AFFF756FA94ED481BDC
:1010E00053EC112BFFF7C8F9FFF792FAC4F8580137
:1010F0000020A07029E010EE900AFFF745FA41ECBD
:10110000100B94ED481B15E02A4A914202D8D4ED09
:10111000530A03E0FAEE0E0AC4ED530A02F0D0FDC2
:1011200084ED540A10EE100AFFF72EFA41EC100B72
:1011300094ED441B51EC100B53EC112BFFF79CF971
:10114000FFF766FAC4F85801A57094ED481B94EDBA
:10115000440B53EC112B51EC100BFFF78DF953ECB2
:10116000182BFFF770F841EC190BD4F85801FFF772
:101170000BFA53EC192BFFF733FA11D294ED481BFD
:1011800094ED440B53EC112B51EC100BFFF774F959
:1011900053EC182BFFF757F8FFF73AFAC4F8580149
:1011A000BDEC048B70BD0000100500200000004065
:1011B0003333D33F000070C170B53C4C002520464E
:1011C00084F85C5194ED050A4089B5EEC00AF1EE51
:1011D00010FA00D118B1642805D820B105E09FEDC0
:1011E000340A84ED050A1E206081608910EE101A11
:1011F000801E304A80B26081914201DC401F6081D4
:101200002A48F3EE0E0A903002F05AFD94ED300AAF
:1012100010EE100A10F17F5F608901D9C01C09E04F
:1012200000EE900AF8EE600A30EEC00ABCEEC00A8A
:1012300010EE100A608180B200EE100A1E48F8EE2F
:10124000400A90ED020A943802F03AFD10EE100ABE
:101250001A4984ED520A884202DD9FED190A06E020
:1012600010EE100A1749884203D99FED170A84ED42
:10127000520AB5EEC00AF1EE10FA01DD257206E061
:10128000B5EEC00AF1EE10FA01D20120207210EE84
:10129000100AFFF779F994ED481B53EC112BFFF777
:1012A000EBF8FFF7B5F9C4F84C0170BD100500204C
:1012B000000070420000A041700600200000A04223
:1012C0000000A042000048C3000048C3FEE7000041
:1012D00010B5084C5A2021684863642001F044FA94
:1012E00021680020486301462046BDE8104002F016
:1012F00099B900004402002010B5044802F01CF81F
:10130000BDE810400021014802F06AB94402002003
:101310000068B0F5047F04D102480A780274497865
:10132000417470471005002000B58BB000200121EA
:10133000CDE9060103900891049000900E210190E0
:101340000290099105906946054800F04FFD022181
:10135000034800F0D5FC024801F01AF80BB000BDBC
:101360008801002010B5074B074A0021074800F00C
:10137000C4FD04490448FFF7CBFFBDE81040034813
:1013800000F02FBE00000020F4040020880100209F
:10139000014800F026BE000088010020014801F04D
:1013A00071B80000C8000020014801F06BB80000CF
:1013B0002801002001681823CAB2103AB2FBF3F2E8
:1013C000054B6FF30901032A9B5CC36500D9091D16
:1013D00081650846704700005445000810B5014675
:1013E00000208B698A6A4FF0C07453B1B3F5005F77
:1013F00015D072B1012A0CD0022A0AD0032A09D1D1
:1014000004E01AB1012A06D0022A03D1C96AC9012F
:1014100000D5012010BDC96AA142FAD010BD002A32
:10142000F7D0012AF2D0022AF3D0032AF3D010BD5C
:1014300030B50468256825F480252560046863605C
:101440008368402B036803D099600068C26030BD98
:101450009A600068C16030BD7047000070B500251B
:1014600002222F492F4800F087FB03222E492F48E4
:1014700000F082FB2A492C4C2B4891ED000A0C34D9
:10148000DFED2B0AB8EE400A84ED000A90ED000A69
:10149000B8EE400A84ED010A90ED010AB8EE400A68
:1014A00084ED020A90ED020AB8EE400A84ED030AC8
:1014B00091ED010AB8EE400A84ED040A9FED1D0A81
:1014C00004EB85006D1C90ED001A052D21EE201A0D
:1014D00021EE001A80ED001AF2DB2068FFF754F8C5
:1014E000114A903AC2E904016068FFF74DF80E4ACC
:1014F000D83AC2E90401A068FFF746F80A4A483A18
:10150000C2E90401E068FFF73FF80B4AC2E90401B1
:101510002069FFF739F8084A4832C2E9040170BD72
:101520001800002038000020B004002080000020B7
:1015300033335340000080394803002010B50222A5
:101540000849094800F018FB052001F00DF90322B5
:101550000649074800F010FBBDE81040052001F0E7
:1015600003B900001800002038000020B00400205B
:10157000800000203948B0EE040A012180ED0E0AF7
:101580009FED370A9FED391A80ED0F0A9FED350B5D
:10159000002280ED020B80ED040B80ED060B80ED48
:1015A000080B80ED0A0B80ED0C0B0170483080EDCC
:1015B0000E1A9FED2F1A80ED0F1A80ED020B80EDB1
:1015C000040B80ED060B80ED080B80ED0A0B80ED1F
:1015D0000C0B02709FED271A483080ED0E1A9FED1C
:1015E000261A80ED0F1A80ED020B80ED040B80EDC2
:1015F000060B80ED080B80ED0A0B80ED0C0B0170E3
:101600009FED1E1A483080ED0E1A9FED1D1A80EDD9
:101610000F1A80ED020B80ED040B80ED060B80EDC0
:10162000080B80ED0A0B80ED0C0B02709FED151A74
:10163000483080ED0E1A9FED141A80ED0F1A80EDE0
:10164000020B80ED040B80ED060B80ED080B80EDA6
:101650000A0B80ED0C0B017070470000480300205E
:10166000333383C00000000000000000A245A14108
:10167000F4FDD4BDD04420408E7583C0560EA041E9
:101680007F6ABC3DAC8B77407593CCC072B6FEE7E9
:101690007047000078B50024009490F83C20012A9F
:1016A00019D0012280F83C200A6807230568092A1E
:1016B00013D9EE680A3A02EB420293409E43EE6071
:1016C0000B788A680A3B03EB43039A400368DD68A2
:1016D0002A43DA6010E0022078BD2E6902EB420254
:1016E00093409E432E610B788A6803EB43039A4034
:1016F00003681D692A431A614A681F23072A13D207
:1017000005686E6B521E02EB820293409E436E632D
:101710000B790A885B1E92B203EB83039A4003683D
:101720005D6B2A435A6327E005680D2A12D22E6B9F
:10173000D21F02EB820293409E432E630B790A88EC
:10174000DB1F92B203EB83039A4003681D6B2A43AD
:101750001A6311E0EE6A0D3A02EB820293409E4357
:10176000EE620B790A880D3B92B203EB83039A4039
:101770000368DD6A2A43DA62164B0568144A9D4203
:1017800006D10D68122D03D1556845F480055560CA
:1017900005689D4218D10B68102B01D0112B13D175
:1017A000536843F400035360096810290CD10A49B7
:1017B0000A4A0968B1FBF2F101EB8101490000E03E
:1017C000491E00910029FBD180F83C40002078BDE3
:1017D00000230140002001401400002040420F007F
:1017E00070477047704770B50446006801684268EA
:1017F000C1F34001C2F3401251B34AB3216CC90690
:1018000003D4216C41F400712164816811F0405FC0
:1018100017D1217EA9B9C16A11F4700F02D0816875
:1018200049050ED4416821F020014160206C20F46C
:1018300080702064206CC00403D4206C40F0010050
:1018400020642046FFF7CCFF21686FF0120008608B
:10185000206801684268C1F38001C2F3C01289B3F5
:1018600082B3216CC90603D4216C41F40051216478
:10187000816811F4401F1ED1816B11F4401F02D00A
:101880008168490517D44168490514D4816811F06D
:10189000405F10D1217E71B9416821F08001416023
:1018A000206C20F480502064206CC00503D4206C90
:1018B00040F0010020642046FFF7EAFE21686FF047
:1018C0000C00086020680168426811F0010FC2F343
:1018D00080120ED06AB10068C0070AD0206C40F4B4
:1018E00080302064204600F046F821686FF0010047
:1018F0000860206801684268C1F34011C2F3806249
:1019000000290DD0002A0BD0616C41F00201616406
:101910006FF0200505602046FFF764FF2068056032
:1019200070BD70B504004FF0000503D0206C002698
:1019300010B107E0012070BD204600F01DF866647C
:1019400084F83C60206CC00610D4206C20F48850D1
:1019500040F0020020642046FFF716F86664206C11
:1019600020F0020040F00100206400E0012584F82E
:101970003C60284670BD70472DE9F04786B00646AA
:1019800014216846FEF754FC3B48DFF8E8C01438E1
:101990003468002538490323384A07154FF4805826
:1019A0004FF480494FF4807A644530D10C6844F498
:1019B00080740C60096801F480710591016841F040
:1019C000010101600068694600F0010005902220D5
:1019D0008DE82900104600F0D9FE2A4C284804F171
:1019E0000C0CC4E90005A5608CE8A0072562204620
:1019F000656237E0B463002211461220A66301F04D
:101A000015F9122001F004F906B0BDE8F087DFF8FF
:101A100078C06445F8D10C6844F400740C6009681F
:101A200001F400710591016841F001010160006855
:101A3000694600F0010005901C208DE82900104641
:101A400000F0A4FE0F4C0E486034303020604FF0A0
:101A50000070C4E9010504F10C0C20468CE8A007D5
:101A60002562656200F0DEFD0028C3D0FFF70EFEA0
:101A7000C0E700000020014044380240000002405E
:101A800010640240C80000200021014018B5002168
:101A9000009190F83C20012A07D0012280F83C20D8
:101AA00002689368DB0702D011E0022018BD93683A
:101AB00043F0010393602A4A2A4B1268B2FBF3F207
:101AC00002EB420200E0521E0092002AFBD10268A3
:101AD0009368DB0741D0036C40F20164A34343F4F5
:101AE0008073036453685B0505D5036C23F40053CE
:101AF00043F480530364036CDB0404D5436C23F08C
:101B00000603436400E0416480F83C1016496FF01E
:101B10002203136049680068CA06144906D0884247
:101B20001BD1816811F0405F13D016E08842F8D0D5
:101B30000F4A904203D1D1F80423D206F1D00D4AC6
:101B400090420AD1D1F8041301F01F011029E8D303
:101B500003E0816841F080418160002018BD0000F1
:101B60001400002040420F000023014000200140EB
:101B70000021014000220140F8B50E460021044634
:101B8000009190F83C00012807D0012084F83C0027
:101B900020688368DB0702D011E00220F8BD83686B
:101BA00043F0010383603748374B0068B0FBF3F024
:101BB00000EB400000E0401E00900028FBD12068B0
:101BC0008368DB075CD0236C40F20165AB4343F4D0
:101BD000807323644068400505D5206C20F40050D4
:101BE00040F480502064206CC00404D5606C20F068
:101BF0000600606400E0616484F83C10A16B244836
:101C0000224DC863A16B23480864A16B2248C864B5
:101C100021686FF0220008602068416841F080610F
:101C200041602068816841F48071816021681346B9
:101C300032464C31A06B00F05FFD68681749C00662
:101C4000206806D088421BD1816811F0405F13D014
:101C500016E08842F8D0124A904203D1D1F804230A
:101C6000D206F1D00F4A90420AD1D1F8041301F004
:101C70001F011029E8D303E0816841F080418160B1
:101C80000020F8BD1400002040420F000023014056
:101C9000DD080008610900084B0900080020014028
:101CA000002101400022014010B50446002094F8B4
:101CB0003C1001290CD0012184F83C1021688A686D
:101CC00022F001028A6021688A68D20702D013E0FC
:101CD000022010BD886820F480708860A06B00F03E
:101CE0008AFB21684A6822F080624A60216C21F4F4
:101CF000885141F001012164002184F83C1010BD9D
:101D000090F82020012A07D0022A05D0416A41F428
:101D10008021416201207047006842690A434261A4
:101D200000207047F0B590F820500468A468012D99
:101D300005D0022D03D0416A41F4802153E014F014
:101D4000406F01D1E5004BD5C4F30164022C03D9E7
:101D5000416A41F4000146E00125A5401D608D68FF
:101D60004FF4C0739DB1CE6835434E6845EAC60551
:101D7000066803EB0417F5514FF4C275076805EBCD
:101D800004150E697E51097D012905D009E00E88F0
:101D9000CD6845EA4655EBE701684E5946F4807632
:101DA0004E511179D2F805504FF4C67641EA052517
:101DB000016806EB04168D511178D2F801204FF41A
:101DC000C47541EA0221026805EB0415515100680F
:101DD00003EB0411425842F0010242500020F0BDD2
:101DE000416A41F4001141620120F0BD10B590F844
:101DF0002020012A07D0022A05D0416A41F480211F
:101E00004162012010BD3B48D0F8002242F001029F
:101E1000C0F80022D0F8002222F47C52C0F8002240
:101E2000D0F800224B6A42EA0322C0F800220A7D61
:101E300002F01F0301229A40D0F81C329343C0F8ED
:101E40001C32CB69B3B9D0F80C329343C0F80C32D2
:101E50008C894B6864F31F434C6900EBC404C4F8DD
:101E600040320C890B6864F31F434C6900EBC404D7
:101E7000C4F84432CB69012B16D1D0F80C3213438D
:101E8000C0F80C320C884B6864F31F434C6900EBBC
:101E9000C404C4F840320C89CB6864F31F434C6916
:101EA00000EBC404C4F844328B69002BD0F8043230
:101EB0000ED01343C0F804320B69002BD0F8143253
:101EC00008D01343C0F81432096A012904D008E08D
:101ED0009343EFE79343F5E7D0F81C121143C0F8A2
:101EE0001C12D0F8001221F00101C0F800120020ED
:101EF00010BD000000640040704730B590F82040ED
:101F0000012C05D0022C03D0416A41F480215DE010
:101F10000468002955D02469A40754D04FF4D8741C
:101F2000056804EB01142D5915F00405956005684A
:101F30002D594ED0ED08556005682C5904F0020467
:101F4000D4604FF4DA74056804EB01142D5905F0E0
:101F50000F05156105682D59C5F3072595610568BD
:101F60002C59240C54614FF4DC72046802EB01120A
:101F7000A4581C700468A458240A5C700468A4580F
:101F8000240C9C700468A258120EDA704FF4DE72B2
:101F9000046802EB0112A4581C710468A458240AB6
:101FA0005C710468A458240C9C710468A258120E39
:101FB000DA71006881B1016941F0200101610020FE
:101FC00030BDE468A8E7416A41F400114162012094
:101FD00030BD6D0D1560AFE7C16841F02001C160F3
:101FE000EDE72DE9F05F0546006800244669D0F86A
:101FF00004908768D0F80CB0D0F810A0D0F8188002
:10200000F10748D0F90714D001218160B80703D542
:10201000284600F0EAF90CE0780702D54FF4006496
:1020200007E0380702D54FF4805402E0284600F05C
:10203000DBF9F80516D529684FF480708860B8057B
:1020400003D5284600F0D3F90CE0780502D544F416
:10205000005407E0380502D544F4804402E02846E5
:1020600000F0C4F9F80316D529684FF48030886071
:10207000B80303D5284600F0BCF90CE0780302D57C
:1020800044F4004407E0380302D544F4803402E00D
:10209000284600F0ADF9300707D55FEACB6004D5DC
:1020A0002968102044F40074C86070074FF00807D6
:1020B00007D55FEA0B7004D52868C760284600F092
:1020C00061F9B00706D52868C068800702D02846A5
:1020D00000F059F9700607D55FEACA6004D529688F
:1020E000102044F480640861B00607D55FEA0A70E6
:1020F00004D528680761284600F046F9F00606D5A1
:1021000028680069800702D0284600F03EF9B00335
:1021100008D55FEAC96005D52968102048602846BF
:1021200000F034F9F00307D55FEA097004D5286898
:102130004760284600F05EF9300446D55FEA4970F2
:1021400040D5F00504D55FEAC87001D044F0010421
:10215000B00504D55FEA887001D544F0020470052B
:1021600004D55FEA487001D544F00404300529D550
:1021700018F0700F26D008F07000402815D006DC4B
:10218000102809D020280AD0302816D10AE050287B
:102190000ED0602811D10EE044F008040DE044F0A8
:1021A00010040AE044F0200407E044F0400404E096
:1021B00044F0800401E044F480742868816921F0CF
:1021C00070018161296804204860002C05D0686A8C
:1021D000204368622846FFF78FFEBDE8F09F70B588
:1021E000040003D094F8200010B104E0012070BD79
:1021F000204600F081F82068016821F002010160AA
:1022000000F0ACFB0546052604E000F0A7FB401BF0
:102210000A2811D8206840688007F6D42068016831
:1022200041F00101016000F099FB05460BE000F070
:1022300095FB401B0A2806D9606A40F400306062B2
:1022400084F82060D2E720684068C007EFD0207E85
:102250000128206801683DD021F080010160607E86
:1022600001282068016838D021F040010160A07E7B
:1022700001282068016833D021F020010160E07E50
:102280000128206801682ED041F010010160207FF4
:1022900001282068016829D021F008010160607FD1
:1022A00001282068016824D021F004010160D4E9EC
:1022B00002010843D4E90412114308436168491E2E
:1022C00008432168C86100206062012084F8200072
:1022D000002070BD41F08001C0E741F04001C5E73A
:1022E00041F02001CAE721F01001CFE741F00801D9
:1022F000D4E741F00401D9E710B586B004461421B3
:102300006846FDF795FF1C492068884231D11B487B
:102310000021026842F000720260006800F0007064
:10232000059016481038026842F001020260006809
:1023300000F0010005904FF4C05000900220CDE95C
:102340000101032003900920049069460C4800F025
:102350001DFA00221146132000F068FC132000F043
:1023600057FC00221146142000F060FC142000F0FD
:102370004FFC06B010BD0000006400404038024031
:102380000000024070477047704770477047000078
:1023900070B5044690F82000012804D0606A40F42B
:1023A0000020606218E0022084F8200020680168A4
:1023B00021F00101016000F0D1FA05460EE000BFF6
:1023C00000F0CCFA401B0A2808D9606A40F40030BB
:1023D0006062052084F82000012070BD20684068FC
:1023E000C007EDD1606270BD70477047704770479D
:1023F0007047704770472DE9F0410446876D00F043
:10240000ADFA064694F835000025022806D0802053
:10241000606584F834500120BDE8F08120680168CF
:1024200021F0160101602068416921F080014161BD
:10243000206C08B9A06C20B12068016821F0080167
:1024400001602068016821F0010101600BE000F0EB
:1024500085FA801B052806D92020606504F8345FC2
:1024600003206070D8E720680068C007EFD194F8B7
:102470005C103F208840B86004F8345F0120607031
:102480000020C9E72DE9F84304464FF00009CDF8D4
:10249000009063484FF41651A56D0068B0FBF1F74A
:1024A0002E6894F85C10082000FA01F131420FD038
:1024B00021680A6852070BD50A6822F004020A60F4
:1024C00094F85C108840A860606D40F00100606581
:1024D00094F85C104FF0010808FA01F0304208D07F
:1024E00021684969090604D5A860606D40F00200C2
:1024F000606594F85C1004208840304208D0216860
:102500000968890704D5A860606D40F00400606523
:1025100094F85C1010208840304218D02168096877
:10252000090714D5A86020680168490304D500682C
:10253000000308D5A16C07E00168C90503D4016850
:1025400021F008010160216C09B12046884794F808
:102550005C1020208840304231D021680968C906CB
:102560002DD5A86094F8350005282068016806D0AC
:10257000490347D5006800031DD4616C1CE021F0BD
:10258000160101602068416921F080014161206CE1
:1025900008B9A06C20B12068016821F00801016031
:1025A00094F85C103F208840A86084F8349084F848
:1025B0003580216D1FE0E16B09B120468847606DD1
:1025C00000282BD0606DC00714D0052084F835009A
:1025D0002068016821F0010101600098401C009012
:1025E000B84203D820680068C007F6D184F8349058
:1025F00084F83580E16C002910D001B02046BDE898
:10260000F04308470168C905D5D4016821F01001DD
:10261000016084F8349084F83580CCE7BDE8F88315
:10262000140000202DE9F041044600F097F9064619
:102630005CB1002584F83450022084F8350020680D
:10264000016821F0010101600DE00120BDE8F08189
:1026500000F084F9801B052805D92020606503203F
:1026600084F83500F2E720680068C007F0D12268DE
:10267000116820480140D4E901031843D4E9033626
:102680003343184363691843A3691843E369184344
:10269000236A18430843616A042903D1D4E90B1360
:1026A00019430843106020684069666A20F00701FA
:1026B00030460E43012704280CD1A06A0643E06A85
:1026C00040B12046FEF78AFE20B14020606584F8C4
:1026D0003570BAE7206846612046FEF76BFE94F835
:1026E0005C203F2191408160656584F83570002051
:1026F000ACE700003F8010F02DE9F0410446866D04
:1027000090F83400002501280DD0012084F8340011
:1027100094F835700020012F07D084F8340002258A
:102720002846BDE8F0810220FBE7022784F83570D7
:1027300060652046FEF77CFE94F85C103F208840E0
:10274000B0602068016841F016010160206C20B182
:102750002068016841F0080101602068016841F0CB
:1027600001010160DCE7000070B5044600F0F6F8F6
:102770000546601C02D004480078044400F0EEF8DE
:10278000401BA042FAD370BD080000202DE9F84F8D
:1027900000224FF0010803254FF00F0E0B6808FAD6
:1027A00002F42340A3426ED14E68012E05D0022EC2
:1027B00003D0112E01D0122E12D186684FEA420C9E
:1027C00005FA0CF7BE43CF6807FA0CF7374387606A
:1027D0004668A6430C79C4F3001494403443446023
:1027E000C668570005FA07FC8C6826EA0C06BC4050
:1027F0003443C4604C68022C01D0122C13D1D4088D
:1028000000EB8404A346D4F8209054074FEAD46A1E
:102810000EFA0AF629EA06090E6906FA0AF646EAE7
:102820000906CBF8206006680C7926EA0C0604F04D
:102830000304BC40344304604C68E40065D5364C66
:10284000266846F480462660246822F0030604F4D5
:1028500080440094314C3444A446D4F80848960788
:10286000370F0EFA07F6B4432D4EB04201D10026C1
:1028700024E02C4EB04201D101261FE02A4EB04286
:1028800002D102261AE040E0284EB04201D10326D0
:1028900014E0274EB04201D104260FE0254EB0428D
:1028A00001D105260AE0244EB04201D1062605E0FA
:1028B000224EB04201D1072600E00826BE40264342
:1028C000CCF808681E4E34684F689C43FF0300D55F
:1028D0001C4334601A4C241D26684F689E43BF0376
:1028E00000D51E432660164E083634684F689C4358
:1028F000FF0200D51C433460114E0C3634684F681B
:102900009C43BF0200D51C433460521C102AFFF4C4
:1029100045AFBDE8F88F0000443802400030014068
:10292000000002400004024000080240000C024087
:10293000001002400014024000180240001C024037
:10294000003C0140426931EA020200D10904816180
:1029500070470AB1816170470904FBE7014880684C
:10296000704700000800002070B5040025D094F8DE
:102970003D00002520B984F83C50204600F0B8F80E
:10298000242084F83D002068016821F001010160E5
:102990002068016841F4004101602068016821F469
:1029A0000041016000F00EFA4D4A6168914201D881
:1029B0004C4900E04C49884201D2012070BD4B498E
:1029C0002368B0FBF1F15E6826F03F060E435E60BF
:1029D0006368934206D94FF4967359434FF47A7360
:1029E000B1FBF3F12368491C1E6A26F03F06314310
:1029F00019626168914210D84900401EB0FBF1F2A3
:102A0000521CC2F30B02042A01D2042022E0B0FBC4
:102A1000F1F0401CC0F30B001CE0A268F2B301EB24
:102A2000C10303EB0116431EB3FBF6F35B1C43F437
:102A300080431B0549D092B301EBC10202EB0111A7
:102A4000401EB0FBF1F0401CC0F30B0040F480408E
:102A500040F400402168CA694CF6FF739A43104362
:102A6000C861D4E9071001432068026822F0C0025F
:102A700011430160D4E9030101432068826848F2F0
:102A8000FF339A4311438160D4E90501084321686B
:102A9000CA6822F0FF021043C86001E00EE016E0B1
:102AA0002068016841F0010101602564202084F85C
:102AB0003D00256384F83E50002070BD01EB4106C7
:102AC000431EB3FBF6F35B1CB3E70120C2E701EB47
:102AD0004101401EB0FBF1F0401CC0F30B00B7E712
:102AE000A086010080841E0000093D0040420F00C6
:102AF00010B586B0044614216846FDF799FB1449C9
:102B00002068884221D11348016841F00201016028
:102B10000068694600F0020005904FF4C070009014
:102B200012200190012002900320039004200490C1
:102B30000948FFF72BFE07481030016841F40011E7
:102B40000160006800F40010059006B010BD0000A0
:102B500000540040303802400004024002488168BE
:102B60000278114481607047080000200B4810B5BE
:102B7000016841F400710160016841F48061016005
:102B8000016841F480710160032000F06FF80020BB
:102B900000F006F800F024F8002010BD003C0240D0
:102BA00070B50D4D04464FF47A712878B1FBF0F002
:102BB0000A490968B1FBF0F000F002FB48B9102C9B
:102BC00007D200222146501E00F030F800206C6031
:102BD00070BD012070BD000008000020140000201E
:102BE0000A4808B5016841F480410160006800F4BA
:102BF000804000900548001F016841F0805101604D
:102C0000006800F08050009008BD00004438024089
:102C1000002809DB00F01F020121914040098000DB
:102C200000F1E020C0F8001170470000F0B40E4B36
:102C30001B680C46C3F30223C3F10705042D00D91A
:102C40000425191D072901D2002300E0DB1E0126FF
:102C500006FA05F1491E214099409E40761E164015
:102C60003143F0BC01F051BB0CED00E0064900F02F
:102C7000070208684FF6FF03184040EA0220034AA3
:102C800010430860704700000CED00E00000FA05FA
:102C90002DE9F0470E46050065D0DFF81481D8F81D
:102CA0000000F7B200F00F00B04207D288F80070C1
:102CB000D8F8000000F00F00B04254D128683D4C15
:102CC000810712D5400703D5206840F4E05020600A
:102CD0002878000703D5206840F460402060206811
:102CE000A96820F0F000084320602878C0072DD0A4
:102CF000304968680839012812D0022813D0032807
:102D000011D00968890700292DDA216821F0030113
:102D100001432160FFF722FE814641F2883A0EE02E
:102D200009688903EFE709688901ECE7FFF716FEF8
:102D3000A0EB0901514502D90320BDE8F0872068C6
:102D4000696800F00C00B0EB810FEFD1D8F80010EB
:102D5000404601F00F01B14207D90770006800F04A
:102D60000F00B04201D00120E7E72878400705D5E1
:102D70002068E96820F4E0500843206028780007C4
:102D800006D52068296920F4604040EAC10020602F
:102D900000F038F82168084AC1F30311515CC840BB
:102DA0000649086006480068FFF7FAFE0020C4E7FD
:102DB000003C0240083802405C4500081400002036
:102DC0000C0000200448054900680968044AC1F362
:102DD0008221515CC840704714000020083802402E
:102DE0006C4500080448054900680968044AC1F3B5
:102DF0004231515CC840704714000020083802403E
:102E00006C450008154810B5006810F00C02144815
:102E100013D04110042A0FD0082A0ED10F4C241FC2
:102E20002268236802F03F025B0207D52068C0F3E6
:102E30008810A0FB010106E0084610BD2168C1F31F
:102E40008811A1FB00010023FDF7BAF92168C1F345
:102E50000141491C4900B0FBF1F010BD08380240A7
:102E60000024F4002DE9F84F04006ED02078DFF83C
:102E70003C93C007A9F104054AD009F10400016898
:102E8000C1F38101012908D00068C0F38100022844
:102E90000AD1D9F80000400206D52868800337D54A
:102EA00060680028E1D033E06068B0F5803F10D062
:102EB000B0F5A02F286810D020F480302860286852
:102EC00020F4802028606068A8B1FFF747FD06461F
:102ED0000DE0286840F48030F4E740F4802028605A
:102EE000F7E700BFFFF73AFD801B642873D8286816
:102EF0008003F7D50CE0FFF731FD064605E000BF83
:102F0000FFF72CFD801B6428F0D828688003F7D4D5
:102F10002078DFF89C8280074FF0000A3ED5A34856
:102F2000001D016811F00C0F08D00068C0F381008B
:102F300002280BD1D9F80000400207D42868800786
:102F400016D5E068012800D112E02BE1E068B8B1A5
:102F50000120C8F80000FFF701FD064605E000BFAC
:102F6000FFF7FCFC801B0228C0D828688007F7D533
:102F70002868216920F0F80040EAC10028600DE0CF
:102F8000C8F800A0FFF7EAFC064604E0FFF7E6FCFD
:102F9000801B02281FD828688007F7D420780007F4
:102FA00022D5824E83486169703671B1012101607A
:102FB000FFF7D4FC074604E0FFF7D0FCC01B022853
:102FC00009D830688007F7D50EE0C0F800A0FFF7F9
:102FD000C5FC074605E082E0FFF7C0FCC01B0228E5
:102FE0007DD830688007F7D42078400768D5DFF8AF
:102FF000BCB100270BF13C0BDBF80000C0000BD488
:10300000DBF8001041F08051CBF80010DBF8000035
:10301000012700F080500090674E3068C00510D442
:10302000306840F480703060FFF798FC009005E055
:10303000FFF794FC0099401A022850D83068C00568
:10304000F6D55A4EA0686C3601280FD00528306896
:1030500010D020F001003060306820F004003060B3
:10306000A068B8B1FFF77AFC00900FE0306840F03C
:103070000100F4E740F004003060F7E7FFF76EFC72
:103080000099411A41F28830814266D83068800741
:10309000F4D50EE0FFF762FC009007E0FFF75EFC5E
:1030A0000099411A41F28830814256D83068800731
:1030B000F4D42FB1DBF8001021F08051CBF80010D0
:1030C000A069C8B33949091D0968C1F38101022902
:1030D0004AD00228504607D0C8F8600000E03CE023
:1030E000FFF73CFC04463BE04746C8F86000FFF7AA
:1030F00035FC064605E000BFFFF730FC801B0228C8
:103100002BD828688001F7D4D4E907010843A16AC5
:103110002A4A490802EB0141626A41EA82110843E6
:1031200094F82C1040EA0161C9F8001001203866BB
:10313000FFF714FC044606E036E000BFFFF70EFC84
:10314000001B022809D828688001F7D52CE000BFB1
:10315000FFF704FC001B022802D90320BDE8F88F0A
:1031600028688001F4D41FE00128F7D0D9F80000C6
:10317000E26900F48001914214D1226A00F03F011B
:1031800091420FD147F6C071626A0140914209D164
:10319000A26A00F44031914204D1E16A00F070600B
:1031A000884201D00120D9E70020D7E70438024047
:1031B00000004742800E4742007000400000FFFFC1
:1031C00010B5401EB0F1807F01D3012010BD4FF03B
:1031D000E02460610F21601701F097F80020A061E2
:1031E00007202061002010BD10B590F83C20012A76
:1031F00022D0012280F83C20CA688C6822F44072F8
:1032000022434C6822F4806222430C6822F400625C
:1032100022430C6922F4805222434C6922F400526A
:103220002243C969002322F480420A4301684A64A8
:1032300080F83C30002010BD022010BD70B590F821
:103240003C20012A32D0012480F83C40022280F840
:103250003D2003685A689D6822F070060A68324370
:103260005A60134B02689A4214D0B2F1804F11D0C9
:10327000104B9A420ED0104B9A420BD00F4B9A42F1
:1032800008D00F4B9A4205D00E4B9A4202D00E4BFB
:103290009A4204D1496825F080031943916080F86F
:1032A0003D40002180F83C10084670BD022070BDF2
:1032B000000001400004004000080040000C0040F5
:1032C00000040140004001400018004010B5040017
:1032D00003D094F83D0010B107E0012010BD00209C
:1032E00084F83C00204600F00DF8022084F83D00F0
:1032F000211D206800F00AFE012084F83D00002016
:1033000010BD000008B500680949884201D109488C
:1033100004E0B0F1804F09D10648001F016841F078
:1033200001010160006800F00100009008BD00008C
:103330000000014044380240022180F83D1001683D
:103340008A6802F00702062A03D00A6842F00102E6
:103350000A60012180F83D100020704770B50446D6
:1033600090F83C00012817D0012584F83C50022039
:1033700084F83D002068826822F0770222F47F42C0
:1033800082600868502830D00DDC20284DD005DC44
:1033900098B310283BD148E0022070BD302844D0BB
:1033A000402834D139E0602828D0702806D0B0F504
:1033B000805F2CD0B0F5005F29D10AE0CB68D1E95D
:1033C0000121206800F013FE2068816841F0770138
:1033D00009E0CB68D1E90121206800F008FE2068EF
:1033E000816841F48041816011E0CA6849682068C1
:1033F00000F0D2FE5021206807E016E0CA68496854
:10340000206800F0DAFE6021206800F0FAFD84F800
:103410003D50002084F83C0070BDCA6849682068AF
:1034200000F0BAFE40212068EFE72268014610460E
:10343000EBE7000070B586B0044614216846FCF73F
:10344000F7FE204A216800241F48022601259142E8
:103450000FD1016841F0100101600068694600F079
:10346000100005904FF4D4400090CDE90164174856
:1034700022E0B1F1804F23D1016841F001010160E8
:10348000016801F001010591016841F0020101604C
:1034900000680095CDE9016400F00200CDE9045018
:1034A000694603940A48FFF771F940F60840009016
:1034B000CDE9016407486946CDE90345FFF766F9A0
:1034C00006B070BD000001403038024000100240DC
:1034D000000002400004024070B5044690F83C0031
:1034E0000D4601280DD0012684F83C60022084F8A6
:1034F0003D0042B1042A18D0082A2AD00C2A4DD106
:1035000039E0022070BD206800F084FD20688169E8
:1035100041F0080181612068816921F00401816125
:10352000206881692A69114311E0206800F0A2FD3A
:103530002068816941F4006181612068816921F41A
:1035400080618161206881692A6941EA0221816183
:1035500024E0206800F0C4FD2068C16941F0080142
:10356000C1612068C16921F00401C1612068C1699D
:103570002A69114311E0206800F0E6FD2068C16966
:1035800041F40061C1612068C16921F48061C161B9
:103590002068C1692A6941EA0221C16184F83D605D
:1035A000002084F83C0070BD10B5040003D094F8EE
:1035B0003D0010B107E0012010BD002084F83C0060
:1035C000204600F00CF8022084F83D00211D206800
:1035D00000F09CFC012084F83D00002010BD7047E5
:1035E00010B504460068012200F0F4FC0B49206885
:1035F000884202D00A49884203D1416C41F400411B
:1036000041642068816801F00701062903D0016840
:1036100041F001010160002010BD000000000140E8
:103620000004014010B504460068002200F0D2FCFE
:10363000114841F2111221689310814202D00F48C3
:10364000814209D1086A104206D1086A184203D1A2
:10365000486C20F4004048642068016A114206D199
:10366000016A194203D1016821F0010101600120C2
:1036700084F83D00002010BD00000140000401401E
:1036800070B5040004D094F83900002510B106E0AC
:10369000012070BD84F83850204600F023F8242023
:1036A00084F839002068C16821F40051C1602046C7
:1036B00000F096FD2068016921F4904101612068C5
:1036C000416921F02A0141612068C16841F400513B
:1036D000C160E563202084F8390084F83A000020B6
:1036E00070BD0000F0B587B0044614216846FCF7B1
:1036F0009FFD2F48276800222E4902240325072614
:1037000087421AD12B481430036843F0100303603A
:10371000006800F010000590086840F001000860A3
:10372000086802AB00F0010005906802CDE90004D2
:1037300083E864006946204818E01E4BDFF87CC02F
:1037400010331F48674515D11F6847F400371F60C5
:103750001B6803F4003305930B6843F008030B6008
:10376000096801F008010591602119E0FFF70EF8E2
:1037700007B0F0BDDFF84CC06745F9D11F6847F4CA
:1037800080271F601B6803F4802305930B6843F0B8
:1037900008030B60096801F0080105914FF44071BE
:1037A000CDE9001402AF694687E86400DEE7000057
:1037B0000010014030380240000002400044004048
:1037C000000C024000480040FEE700007FB50024E6
:1037D0001A4800940194029417490394016001254A
:1037E0004FF480310561C0E90114057680F820406E
:1037F0001349C0E90A140226C661C46080F830404B
:103800004561FEF78EF808B1FDF740FF0095CDE960
:10381000015469460948FDF73DFF08B1FDF736FF41
:103820000520CDE9000669460448FDF733FF00286E
:1038300001D0FDF72BFF7FBD0020014038000020A4
:103840000100000F2DE9FF4100242048009401945D
:1038500002941D490394016001254FF480310561F4
:10386000C0E90114057680F820401949C0E90A141E
:103870000326C661C46080F830404561FEF751F808
:1038800008B1FDF703FF02270097CDE9015469460F
:103890000E48FDF7FFFE08B1FDF7F8FE69460B483C
:1038A000CDE90067FDF7F6FE08B1FDF7EFFE042055
:1038B000CDE9000669460548FDF7ECFE002801D079
:1038C000FDF7E4FEBDE8FF810021014080000020FB
:1038D0000100000F0F4810B50D4901600321416040
:1038E00000214FF410228160C0E903124FF400124E
:1038F0004261017641768176C17601774177FEF7A4
:103900006EFC002803D0BDE81040FDF7BFBE10BD1F
:1039100000640040880100200D4808B5016841F4AA
:10392000800101600068002200F4800000901146D0
:103930003820FFF77BF93820FFF76AF9002211469B
:103940003A20FFF773F9BDE808403A20FFF760B965
:103950003038024070B586B014216846FCF768FC28
:1039600026480024016841F004010160016801F06B
:1039700004010591016841F080010160016801F0D6
:1039800080010591016841F001010160016801F0C9
:1039900001010591016841F010010160016801F029
:1039A00010010591016841F002010160016801F018
:1039B00002010591016841F0080101600068104EA4
:1039C00000F008004FF400550590002229463046CB
:1039D000FEF7BFFF01200095CDE90104694630469E
:1039E0000394FEF7D3FEA80000900648CDE9010439
:1039F00069460548FEF7CAFE06B070BD3038024081
:103A00000008024000001110000002400D4810B5EF
:103A10000B4901600C49416000214FF480428160F4
:103A2000C0E9031241618161C1610162FEF79CFF3F
:103A3000002803D0BDE81040FDF728BE10BD0000EF
:103A400000540040B0010020A086010030B595B0C0
:103A500000240F9410941194129413941C2168461E
:103A60001494FCF7E5FB202107A8FCF7E1FB36489E
:103A7000344901600921C0E9011440F2E731C0E98D
:103A8000031444618461FFF721FC08B1FDF7FEFDDA
:103A90004FF480500F900FA92B48FFF75FFC08B13F
:103AA000FDF7F4FD2848FFF77FFD08B1FDF7EEFDB7
:103AB000139413A924481494FFF7C0FB08B1FDF731
:103AC000E5FD6025CDE90054029403940494059427
:103AD000002269461C480694FFF7FEFC08B1FDF77A
:103AE000D5FD70200090042269461748FFF7F4FCCA
:103AF00008B1FDF7CBFD082269461348FFF7ECFC3F
:103B000008B1FDF7C3FD0C2269460F480095FFF789
:103B1000E3FC08B1FDF7BAFD0794089409944FF44B
:103B200000500A94CDE90B4007A907480E94FFF70F
:103B30005BFB08B1FDF7AAFD0348FFF77BFC15B05E
:103B400030BD0000000001400402002010B58EB01E
:103B500000240794089409940A940B941C21684645
:103B60000C94FCF765FB2A484FF080410160A721C7
:103B7000C0E9011440F2E731C0E903148461FFF7A2
:103B8000A5FB08B1FDF782FD4FF48050079007A90F
:103B90001F48FFF7E3FB08B1FDF778FD1C48FFF76E
:103BA00003FD08B1FDF772FD0B940BA918480C94A6
:103BB000FFF744FB08B1FDF769FD6020CDE9000483
:103BC00002940022694612480494FFF785FC08B16C
:103BD000FDF75CFD042269460D48FFF77DFC08B146
:103BE000FDF754FD082269460948FFF775FC08B146
:103BF000FDF74CFD0C2269460548FFF76DFC08B146
:103C0000FDF744FD0248FFF715FC0EB010BD0000A3
:103C1000440200200C4810B50A4901604FF4E1311C
:103C20004160002181600C22C160C0E90412816101
:103C3000C161FFF725FD002803D0BDE81040FDF766
:103C400025BD10BD00100140840200200C4810B5B5
:103C50000A4901604FF4E1314160002181600C228A
:103C6000C160C0E904128161C161FFF709FD00284C
:103C700003D0BDE81040FDF709BD10BD0044004071
:103C8000C40200200C4810B50A4901604FF4E1312C
:103C90004160002181600C22C160C0E90412816191
:103CA000C161FFF7EDFC002803D0BDE81040FDF72F
:103CB000EDBC10BD0048004004030020FEE7FEE715
:103CC000A0B1D0ED071AC0ED081A90ED061A80EDEC
:103CD000071AC0ED040A80ED050A30EEC00A80ED37
:103CE000060A017829B1012931D064E09FED330A39
:103CF0007047D0ED010A60EE801AC0ED091AD0EDD0
:103D00000A0A90ED022A42EE000A30EE410AC0EDA6
:103D10000A0A90ED031A20EE011A80ED0B1A90EDBD
:103D20000D0AF4EEC00AF1EE10FA09DCB1EE400A19
:103D3000F4EEC00AF1EE10FA02D390ED0A0A01E0A7
:103D400080ED0A0A31EE800A30EE010A21E070EEC1
:103D5000410A90ED012AF0EE002A20EE822A80ED41
:103D6000092AD0ED020A60EE800A01EE620AC0ED77
:103D70000A0A90ED031A72EE200A30EE210A20EEB4
:103D8000010A80ED0B0A30EE800AD0ED0C0A30EE0D
:103D9000200A80ED0C0AD0ED0E0AB4EEE00AF1EE36
:103DA00010FA06DCF1EE600AB4EEE00AF1EE10FA69
:103DB00001D2C0ED0C0A90ED0C0A70470000000023
:103DC00000280FD00170C0ED0D0A80ED0E0A9FEDA6
:103DD000060A80ED080A80ED070A80ED060A001D3C
:103DE00080EC031A704700000000000070470000DC
:103DF00070B50D4C4FF4FA75206885632846FEF7C0
:103E0000B3FC206800268663206805642846FEF718
:103E1000ABFC206806646421C1632846FEF7A4FC5D
:103E20002068C66370BD00004402002010B5084839
:103E3000FFF782FA04210648FFF7D2FB0821044865
:103E4000FFF7CEFBBDE810400C210148FFF7C8BBCF
:103E5000440200207047FEF781BE000030B593B0E9
:103E600030216846FCF7E4F914210CA8FCF7E0F9CE
:103E70001D480025016841F080510160006800F094
:103E8000805011901948016841F480410160006838
:103E9000022400F480401190012000900004019061
:103EA0008001CDE9064008AA0420A82182E8130079
:103EB0000B906846FEF7D6FF08B172B6FEE70CA974
:103EC0000F2081E831004FF4A0500F904FF4805044
:103ED000109005210CA8FEF7DBFE002801D072B679
:103EE000FEE713B030BD00004038024000700040D3
:103EF0000548016841F47001016003494FF000601A
:103F0000803908607047000088ED00E0F0B5026875
:103F1000254C264D264E274F274B4FF0804CA04274
:103F200009D0604507D0A84205D0B04203D0B842BE
:103F300001D0984204D122F0700E4A6842EA0E0283
:103F4000A0421BD0604519D0A84217D0B04215D06E
:103F5000B84213D0984211D0184DA8420ED0184D37
:103F6000A8420BD0174DA84208D0174DA84205D043
:103F7000164DA84202D0164DA84203D122F4407536
:103F8000CA682A434D6922F080022A4302608A6887
:103F9000C2620A688262A04201D0984201D10969D6
:103FA000016301214161F0BD0000014000040040B7
:103FB00000080040000C00400004014000400140A7
:103FC000004401400048014000180040001C00402F
:103FD0000020004010B501F01F030121046A994040
:103FE0008C430462016A9A401143016210BD10B50E
:103FF000846842EA032224F47F440A432243826015
:1040000010BD826822F070020A4342F0070181600D
:1040100070470000F0B5026A22F001020262036AF2
:1040200042688469124E24F073050C682C4323F017
:1040300002058B682B430D4DA84201D0B04205D13B
:1040400023F00807CB683B4323F00403A84201D0C8
:10405000B04205D14D6922F4407215438A692A4362
:1040600042608461496841630362F0BD0000014021
:1040700000040140F0B5026A22F010020262026AF6
:10408000436884690D6824F4E64444EA05248D6895
:1040900022F0200242EA05120F4D104EA84201D034
:1040A000B04206D1CF6822F0800242EA071222F025
:1040B0004002A84201D0B04207D14D6923F44063C9
:1040C00043EA85038D6943EA850343608461496857
:1040D00081630262F0BD0000000001400004014065
:1040E000F0B5026A22F480720262026A4368C4690F
:1040F00022F4007224F073050C68124E2C438D6874
:1041000042EA05220E4DA84201D0B04206D1CF6846
:1041100022F4006242EA072222F48062A84201D01F
:10412000B04207D14D6923F4405343EA05138D692A
:1041300043EA05134360C4614968C1630262F0BD8C
:10414000000001400004014030B5026A22F48052B0
:104150000262046A4268C3690D6823F4E64343EAD5
:1041600005238D6824F4005444EA0534084DA84220
:1041700002D0084DA84204D14D6922F4804242EA9F
:1041800085124260C36149680164046230BD000069
:10419000000001400004014010B5036A046A24F0E5
:1041A00001040462846924F0F00444EA021423F058
:1041B0000A020A438461026210BD10B5036A23F04B
:1041C000100303628369046A23F4704343EA0232F2
:1041D00024F0A00343EA01118261016210BD0000D6
:1041E0002DE9F041044600680169E26821F440517C
:1041F000114301612169A068E269084361691143C3
:1042000008432168CA6849F20C639A430243CA60B2
:1042100020684169A26921F4407111434161E0695C
:10422000192764253226B0F5004F354A35492068F4
:104230004FF0000806D0884201D0904236D1FEF7F8
:10424000D1FD35E0884201D0904202D1FEF7CAFD8F
:1042500001E0FEF7B7FD61684A18A0FB070148EBD3
:104260000803FBF7ADFF0146B0FBF5F00201B1FB1F
:10427000F5F06FF01803584301EB800006EBC00027
:10428000B0FBF5F000F0F80002EB4002B1FBF5F0F6
:10429000584301EB800006EBC000B0FBF5F000F0E6
:1042A0000700216810448860BDE8F081FEF78AFDB0
:1042B00061688B0F8A00A0FB0701FBF781FF0146B5
:1042C000B0FBF5F06FF01802504301EB800006EBF5
:1042D0000010B0FBF5F000F0F002B1FBF5F002EBDE
:1042E0000012B1FBF5F06FF01803584301EB8000AA
:1042F00006EB0010B0FBF5F000F00F00D1E7000076
:104300000014014000100140FEE70907090E0028D3
:1043100004DB00F1E02080F80014704700F00F008B
:1043200000F1E02080F8141D704702E008C8121F59
:1043300008C1002AFAD170477047002001E001C18E
:10434000121F002AFBD1704790EC020AF4EE400ADB
:10435000F1EE10FA09D090ED041A21EE000A90ED6A
:10436000051A01EE200A80ED010A7047DFED161AEA
:10437000F5EEC00AB7EE001AF1EE10FAC0ED020A2F
:1043800080ED030A04D9B5EEC00AF1EE10FA04D8A4
:1043900080ED041AC0ED051A70479FED0C2A20EE3F
:1043A000822AC1EE020AB0EE412A00EE802A81EE96
:1043B000020A80ED040A31EE400A80ED050AC0EDE4
:1043C000001AC0ED011A704700000000DB0FC94061
:1043D000FEF7CCFBFFF742FDFFF7BCFAFFF79CFAB4
:1043E000FFF7F4F9FFF72EFAFFF710FBFFF72EFBAC
:1043F000FFF7ACFBFFF70EFCFFF728FCFFF742FCD2
:10440000FFF768FADFF8F8904FF4005801224146B0
:104410004846FEF79EFA3B48FEF78EFFFCF76CFF1E
:10442000FFF704FDFCF780FFFCF752FFFFF7E0FC0D
:104430003548FDF72BFB0520FEF796F93348FDF7CD
:1044400025FB0520FEF790F9FDF794F8FDF776F8C7
:10445000C820FEF789F9FDF701F8FCF7CDF9FCF764
:1044600027FB00252C46FCF723FB4FF47A773846D0
:10447000FEF77AF95FF00006FCF7F0FFFCF7BCF9F5
:104480002148FDF711FC2148FDF70EFC6420FEF7E2
:104490006BF9761CF6B20A2EEED300BFFCF7DEFFF6
:1044A000FCF7AAF9FCF7A0FBFCF786FEFCF7D8FDA9
:1044B000FCF756FC1448FDF7F7FB1448FDF7F4FB36
:1044C0006D1C641CADB2A4B2BD4204D34146484643
:1044D000FEF738FA00250A2CE0D30D489FED0D1B9E
:1044E00090ED440B53EC112B51EC100BFBF752FFEA
:1044F000FCF731F880B200F011F80024CEE700009C
:104500000008024004020020380000208000002043
:10451000100500200000000000408F4011B40A4840
:1045200040F21121016000218160C1600821016118
:104530000648BDF80010031D018001B0024610BC02
:1045400001490348FDF7EEBBDC04002020000020F9
:10455000880100200006101600061016000000005A
:104560000000000001020304060708090000000023
:1045700001020304944500080000002038000000F8
:104580002A430008CC45000838000020E00A00005B
:104590003A43000800000000000000000100000095
:1045A00010000000000000000024F40000000000E3
:1045B00000000000000000000000000000000000FB
:0C45C000000000000000000000000000EF
:040000050800018965
:00000001FF
